{
  "contractName": "workers",
  "abi": [
    {
      "inputs": [],
      "stateMutability": "nonpayable",
      "type": "constructor"
    },
    {
      "inputs": [],
      "name": "administrador",
      "outputs": [
        {
          "internalType": "address",
          "name": "",
          "type": "address"
        }
      ],
      "stateMutability": "view",
      "type": "function",
      "constant": true
    },
    {
      "inputs": [
        {
          "internalType": "string",
          "name": "a",
          "type": "string"
        },
        {
          "internalType": "string",
          "name": "b",
          "type": "string"
        }
      ],
      "name": "compareStrings",
      "outputs": [
        {
          "internalType": "bool",
          "name": "",
          "type": "bool"
        }
      ],
      "stateMutability": "pure",
      "type": "function",
      "constant": true
    },
    {
      "inputs": [
        {
          "internalType": "address",
          "name": "_wallet",
          "type": "address"
        }
      ],
      "name": "logging",
      "outputs": [
        {
          "internalType": "string",
          "name": "",
          "type": "string"
        },
        {
          "internalType": "string",
          "name": "",
          "type": "string"
        }
      ],
      "stateMutability": "view",
      "type": "function",
      "constant": true
    },
    {
      "inputs": [
        {
          "internalType": "address",
          "name": "_wallet",
          "type": "address"
        }
      ],
      "name": "loggingAdmin",
      "outputs": [
        {
          "internalType": "bool",
          "name": "",
          "type": "bool"
        }
      ],
      "stateMutability": "view",
      "type": "function",
      "constant": true
    },
    {
      "inputs": [
        {
          "internalType": "address",
          "name": "_wallet",
          "type": "address"
        },
        {
          "internalType": "string",
          "name": "_id",
          "type": "string"
        },
        {
          "internalType": "bool",
          "name": "_activo",
          "type": "bool"
        },
        {
          "internalType": "string",
          "name": "_tipoemp",
          "type": "string"
        }
      ],
      "name": "addEmpleado",
      "outputs": [],
      "stateMutability": "nonpayable",
      "type": "function"
    },
    {
      "inputs": [
        {
          "internalType": "string",
          "name": "_descripcion",
          "type": "string"
        },
        {
          "internalType": "uint256",
          "name": "_plazodias",
          "type": "uint256"
        },
        {
          "internalType": "uint256",
          "name": "_recompensa",
          "type": "uint256"
        }
      ],
      "name": "addTarea",
      "outputs": [],
      "stateMutability": "nonpayable",
      "type": "function"
    },
    {
      "inputs": [
        {
          "internalType": "string",
          "name": "_descripcion",
          "type": "string"
        },
        {
          "internalType": "uint256",
          "name": "_importe",
          "type": "uint256"
        }
      ],
      "name": "addRecompensa",
      "outputs": [],
      "stateMutability": "nonpayable",
      "type": "function"
    },
    {
      "inputs": [
        {
          "internalType": "uint256",
          "name": "_idt",
          "type": "uint256"
        },
        {
          "internalType": "string",
          "name": "_idemp",
          "type": "string"
        }
      ],
      "name": "addTareaEmp",
      "outputs": [],
      "stateMutability": "nonpayable",
      "type": "function"
    },
    {
      "inputs": [
        {
          "internalType": "uint256",
          "name": "_id",
          "type": "uint256"
        }
      ],
      "name": "validarTarea",
      "outputs": [],
      "stateMutability": "nonpayable",
      "type": "function"
    },
    {
      "inputs": [
        {
          "internalType": "uint256",
          "name": "_id",
          "type": "uint256"
        }
      ],
      "name": "pagar",
      "outputs": [],
      "stateMutability": "nonpayable",
      "type": "function"
    },
    {
      "inputs": [],
      "name": "GetListaEmpleados",
      "outputs": [
        {
          "components": [
            {
              "internalType": "string",
              "name": "idemp",
              "type": "string"
            },
            {
              "internalType": "address",
              "name": "wallet",
              "type": "address"
            },
            {
              "internalType": "bool",
              "name": "activo",
              "type": "bool"
            },
            {
              "internalType": "string",
              "name": "tipoemp",
              "type": "string"
            }
          ],
          "internalType": "struct workers.Empleado[]",
          "name": "",
          "type": "tuple[]"
        }
      ],
      "stateMutability": "view",
      "type": "function",
      "constant": true
    },
    {
      "inputs": [],
      "name": "GetListaTareas",
      "outputs": [
        {
          "components": [
            {
              "internalType": "uint256",
              "name": "idt",
              "type": "uint256"
            },
            {
              "internalType": "string",
              "name": "descripcion",
              "type": "string"
            },
            {
              "internalType": "uint256",
              "name": "recompensa",
              "type": "uint256"
            },
            {
              "internalType": "uint256",
              "name": "fechaini",
              "type": "uint256"
            },
            {
              "internalType": "uint256",
              "name": "fechafin",
              "type": "uint256"
            },
            {
              "internalType": "bool",
              "name": "activo",
              "type": "bool"
            }
          ],
          "internalType": "struct workers._tareas[]",
          "name": "",
          "type": "tuple[]"
        }
      ],
      "stateMutability": "view",
      "type": "function",
      "constant": true
    },
    {
      "inputs": [],
      "name": "GetListaTareasEmp",
      "outputs": [
        {
          "components": [
            {
              "internalType": "uint256",
              "name": "id",
              "type": "uint256"
            },
            {
              "internalType": "uint256",
              "name": "idt",
              "type": "uint256"
            },
            {
              "internalType": "string",
              "name": "idemp",
              "type": "string"
            },
            {
              "internalType": "bool",
              "name": "completado",
              "type": "bool"
            },
            {
              "internalType": "bool",
              "name": "pagado",
              "type": "bool"
            }
          ],
          "internalType": "struct workers._tareasEmp[]",
          "name": "",
          "type": "tuple[]"
        }
      ],
      "stateMutability": "view",
      "type": "function",
      "constant": true
    },
    {
      "inputs": [],
      "name": "GetListaRecompensas",
      "outputs": [
        {
          "components": [
            {
              "internalType": "uint256",
              "name": "idr",
              "type": "uint256"
            },
            {
              "internalType": "string",
              "name": "descripcion",
              "type": "string"
            },
            {
              "internalType": "uint256",
              "name": "importe",
              "type": "uint256"
            }
          ],
          "internalType": "struct workers._recompensas[]",
          "name": "",
          "type": "tuple[]"
        }
      ],
      "stateMutability": "view",
      "type": "function",
      "constant": true
    }
  ],
  "bytecode": "0x608060405260006001556000600255600060035534801561001f57600080fd5b50336000806101000a81548173ffffffffffffffffffffffffffffffffffffffff021916908373ffffffffffffffffffffffffffffffffffffffff1602179055506127a58061006f6000396000f3fe608060405234801561001057600080fd5b50600436106100ea5760003560e01c8063924cc1511161008c578063be0acc5311610066578063be0acc5314610238578063bed34bba14610254578063ca67f4f514610284578063f1037ef5146102a0576100ea565b8063924cc151146101ce578063968c3dca146101ea578063ab7a7ad114610208576100ea565b806360145bc1116100c857806360145bc1146101475780637062b97d1461017857806371d0ec37146101965780637cbeda20146101b2576100ea565b80633aa6d208146100ef578063414ee43e1461010b57806348658eb914610129575b600080fd5b610109600480360381019061010491906115a4565b6102be565b005b61011361047f565b60405161012091906117c3565b60405180910390f35b6101316105ba565b60405161013e9190611952565b60405180910390f35b610161600480360381019061015c91906119a0565b6107ae565b60405161016f929190611a17565b60405180910390f35b61018061095c565b60405161018d9190611a5d565b60405180910390f35b6101b060048036038101906101ab9190611bad565b610980565b005b6101cc60048036038101906101c79190611c1c565b610b2a565b005b6101e860048036038101906101e391906115a4565b610c9f565b005b6101f2610ebe565b6040516101ff9190611d8a565b60405180910390f35b610222600480360381019061021d91906119a0565b610fc3565b60405161022f9190611dbb565b60405180910390f35b610252600480360381019061024d9190611dd6565b61102b565b005b61026e60048036038101906102699190611e32565b611146565b60405161027b9190611dbb565b60405180910390f35b61029e60048036038101906102999190611ed6565b61119f565b005b6102a8611426565b6040516102b591906120c0565b60405180910390f35b60008054906101000a900473ffffffffffffffffffffffffffffffffffffffff1673ffffffffffffffffffffffffffffffffffffffff163373ffffffffffffffffffffffffffffffffffffffff161461034c576040517f08c379a00000000000000000000000000000000000000000000000000000000081526004016103439061212e565b60405180910390fd5b60011515600782815481106103645761036361214e565b5b906000526020600020906004020160030160009054906101000a900460ff161515146103c5576040517f08c379a00000000000000000000000000000000000000000000000000000000081526004016103bc906121c9565b60405180910390fd5b60001515600782815481106103dd576103dc61214e565b5b906000526020600020906004020160030160019054906101000a900460ff1615151461043e576040517f08c379a000000000000000000000000000000000000000000000000000000000815260040161043590612235565b60405180910390fd5b6001600782815481106104545761045361214e565b5b906000526020600020906004020160030160016101000a81548160ff02191690831515021790555050565b60606007805480602002602001604051908101604052809291908181526020016000905b828210156105b157838290600052602060002090600402016040518060a001604052908160008201548152602001600182015481526020016002820180546104ea90612284565b80601f016020809104026020016040519081016040528092919081815260200182805461051690612284565b80156105635780601f1061053857610100808354040283529160200191610563565b820191906000526020600020905b81548152906001019060200180831161054657829003601f168201915b505050505081526020016003820160009054906101000a900460ff161515151581526020016003820160019054906101000a900460ff161515151581525050815260200190600101906104a3565b50505050905090565b60606004805480602002602001604051908101604052809291908181526020016000905b828210156107a5578382906000526020600020906003020160405180608001604052908160008201805461061190612284565b80601f016020809104026020016040519081016040528092919081815260200182805461063d90612284565b801561068a5780601f1061065f5761010080835404028352916020019161068a565b820191906000526020600020905b81548152906001019060200180831161066d57829003601f168201915b505050505081526020016001820160009054906101000a900473ffffffffffffffffffffffffffffffffffffffff1673ffffffffffffffffffffffffffffffffffffffff1673ffffffffffffffffffffffffffffffffffffffff1681526020016001820160149054906101000a900460ff1615151515815260200160028201805461071490612284565b80601f016020809104026020016040519081016040528092919081815260200182805461074090612284565b801561078d5780601f106107625761010080835404028352916020019161078d565b820191906000526020600020905b81548152906001019060200180831161077057829003601f168201915b505050505081525050815260200190600101906105de565b50505050905090565b6060806000600560008573ffffffffffffffffffffffffffffffffffffffff1673ffffffffffffffffffffffffffffffffffffffff168152602001908152602001600020600201805461080090612284565b80601f016020809104026020016040519081016040528092919081815260200182805461082c90612284565b80156108795780601f1061084e57610100808354040283529160200191610879565b820191906000526020600020905b81548152906001019060200180831161085c57829003601f168201915b505050505090506000600560008673ffffffffffffffffffffffffffffffffffffffff1673ffffffffffffffffffffffffffffffffffffffff16815260200190815260200160002060000180546108cf90612284565b80601f01602080910402602001604051908101604052809291908181526020018280546108fb90612284565b80156109485780601f1061091d57610100808354040283529160200191610948565b820191906000526020600020905b81548152906001019060200180831161092b57829003601f168201915b505050505090508082935093505050915091565b60008054906101000a900473ffffffffffffffffffffffffffffffffffffffff1681565b60008054906101000a900473ffffffffffffffffffffffffffffffffffffffff1673ffffffffffffffffffffffffffffffffffffffff163373ffffffffffffffffffffffffffffffffffffffff1614610a0e576040517f08c379a0000000000000000000000000000000000000000000000000000000008152600401610a059061212e565b60405180910390fd5b6000603c80601885610a2091906122e4565b610a2a91906122e4565b610a3491906122e4565b9050600042905060008282610a499190612326565b905060006001905060066040518060c0016040528060015481526020018981526020018781526020018581526020018481526020018315158152509080600181540180825580915050600190039060005260206000209060060201600090919091909150600082015181600001556020820151816001019081610acc9190612506565b5060408201518160020155606082015181600301556080820151816004015560a08201518160050160006101000a81548160ff021916908315150217905550505060018054610b1b9190612326565b60018190555050505050505050565b60011515600560003373ffffffffffffffffffffffffffffffffffffffff1673ffffffffffffffffffffffffffffffffffffffff16815260200190815260200160002060010160009054906101000a900460ff16151514610bc0576040517f08c379a0000000000000000000000000000000000000000000000000000000008152600401610bb790612624565b60405180910390fd5b60076040518060a00160405280600354815260200184815260200183815260200160001515815260200160001515815250908060018154018082558091505060019003906000526020600020906004020160009091909190915060008201518160000155602082015181600101556040820151816002019081610c439190612506565b5060608201518160030160006101000a81548160ff02191690831515021790555060808201518160030160016101000a81548160ff02191690831515021790555050506001600354610c959190612326565b6003819055505050565b60011515600560003373ffffffffffffffffffffffffffffffffffffffff1673ffffffffffffffffffffffffffffffffffffffff16815260200190815260200160002060010160009054906101000a900460ff16151514610d35576040517f08c379a0000000000000000000000000000000000000000000000000000000008152600401610d2c90612690565b60405180910390fd5b610e3e600560003373ffffffffffffffffffffffffffffffffffffffff1673ffffffffffffffffffffffffffffffffffffffff1681526020019081526020016000206002018054610d8590612284565b80601f0160208091040260200160405190810160405280929190818152602001828054610db190612284565b8015610dfe5780601f10610dd357610100808354040283529160200191610dfe565b820191906000526020600020905b815481529060010190602001808311610de157829003601f168201915b50505050506040518060400160405280600a81526020017f73757065727669736f7200000000000000000000000000000000000000000000815250611146565b610e7d576040517f08c379a0000000000000000000000000000000000000000000000000000000008152600401610e74906126fc565b60405180910390fd5b600160078281548110610e9357610e9261214e565b5b906000526020600020906004020160030160006101000a81548160ff02191690831515021790555050565b60606008805480602002602001604051908101604052809291908181526020016000905b82821015610fba578382906000526020600020906003020160405180606001604052908160008201548152602001600182018054610f1f90612284565b80601f0160208091040260200160405190810160405280929190818152602001828054610f4b90612284565b8015610f985780601f10610f6d57610100808354040283529160200191610f98565b820191906000526020600020905b815481529060010190602001808311610f7b57829003601f168201915b5050505050815260200160028201548152505081526020019060010190610ee2565b50505050905090565b6000806000905060008054906101000a900473ffffffffffffffffffffffffffffffffffffffff1673ffffffffffffffffffffffffffffffffffffffff168373ffffffffffffffffffffffffffffffffffffffff160361102257600190505b80915050919050565b60008054906101000a900473ffffffffffffffffffffffffffffffffffffffff1673ffffffffffffffffffffffffffffffffffffffff163373ffffffffffffffffffffffffffffffffffffffff16146110b9576040517f08c379a00000000000000000000000000000000000000000000000000000000081526004016110b09061212e565b60405180910390fd5b6008604051806060016040528060025481526020018481526020018381525090806001815401808255809150506001900390600052602060002090600302016000909190919091506000820151816000015560208201518160010190816111209190612506565b50604082015181600201555050600160025461113c9190612326565b6002819055505050565b6000816040516020016111599190612758565b60405160208183030381529060405280519060200120836040516020016111809190612758565b6040516020818303038152906040528051906020012014905092915050565b60008054906101000a900473ffffffffffffffffffffffffffffffffffffffff1673ffffffffffffffffffffffffffffffffffffffff163373ffffffffffffffffffffffffffffffffffffffff161461122d576040517f08c379a00000000000000000000000000000000000000000000000000000000081526004016112249061212e565b60405180910390fd5b600460405180608001604052808581526020018673ffffffffffffffffffffffffffffffffffffffff168152602001841515815260200183815250908060018154018082558091505060019003906000526020600020906003020160009091909190915060008201518160000190816112a69190612506565b5060208201518160010160006101000a81548173ffffffffffffffffffffffffffffffffffffffff021916908373ffffffffffffffffffffffffffffffffffffffff16021790555060408201518160010160146101000a81548160ff02191690831515021790555060608201518160020190816113239190612506565b50505082600560008673ffffffffffffffffffffffffffffffffffffffff1673ffffffffffffffffffffffffffffffffffffffff16815260200190815260200160002060000190816113759190612506565b5081600560008673ffffffffffffffffffffffffffffffffffffffff1673ffffffffffffffffffffffffffffffffffffffff16815260200190815260200160002060010160006101000a81548160ff02191690831515021790555080600560008673ffffffffffffffffffffffffffffffffffffffff1673ffffffffffffffffffffffffffffffffffffffff168152602001908152602001600020600201908161141f9190612506565b5050505050565b60606006805480602002602001604051908101604052809291908181526020016000905b8282101561155157838290600052602060002090600602016040518060c00160405290816000820154815260200160018201805461148790612284565b80601f01602080910402602001604051908101604052809291908181526020018280546114b390612284565b80156115005780601f106114d557610100808354040283529160200191611500565b820191906000526020600020905b8154815290600101906020018083116114e357829003601f168201915b505050505081526020016002820154815260200160038201548152602001600482015481526020016005820160009054906101000a900460ff1615151515815250508152602001906001019061144a565b50505050905090565b6000604051905090565b600080fd5b600080fd5b6000819050919050565b6115818161156e565b811461158c57600080fd5b50565b60008135905061159e81611578565b92915050565b6000602082840312156115ba576115b9611564565b5b60006115c88482850161158f565b91505092915050565b600081519050919050565b600082825260208201905092915050565b6000819050602082019050919050565b6116068161156e565b82525050565b600081519050919050565b600082825260208201905092915050565b60005b8381101561164657808201518184015260208101905061162b565b60008484015250505050565b6000601f19601f8301169050919050565b600061166e8261160c565b6116788185611617565b9350611688818560208601611628565b61169181611652565b840191505092915050565b60008115159050919050565b6116b18161169c565b82525050565b600060a0830160008301516116cf60008601826115fd565b5060208301516116e260208601826115fd565b50604083015184820360408601526116fa8282611663565b915050606083015161170f60608601826116a8565b50608083015161172260808601826116a8565b508091505092915050565b600061173983836116b7565b905092915050565b6000602082019050919050565b6000611759826115d1565b61176381856115dc565b935083602082028501611775856115ed565b8060005b858110156117b15784840389528151611792858261172d565b945061179d83611741565b925060208a01995050600181019050611779565b50829750879550505050505092915050565b600060208201905081810360008301526117dd818461174e565b905092915050565b600081519050919050565b600082825260208201905092915050565b6000819050602082019050919050565b600073ffffffffffffffffffffffffffffffffffffffff82169050919050565b600061183c82611811565b9050919050565b61184c81611831565b82525050565b6000608083016000830151848203600086015261186f8282611663565b91505060208301516118846020860182611843565b50604083015161189760408601826116a8565b50606083015184820360608601526118af8282611663565b9150508091505092915050565b60006118c88383611852565b905092915050565b6000602082019050919050565b60006118e8826117e5565b6118f281856117f0565b93508360208202850161190485611801565b8060005b85811015611940578484038952815161192185826118bc565b945061192c836118d0565b925060208a01995050600181019050611908565b50829750879550505050505092915050565b6000602082019050818103600083015261196c81846118dd565b905092915050565b61197d81611831565b811461198857600080fd5b50565b60008135905061199a81611974565b92915050565b6000602082840312156119b6576119b5611564565b5b60006119c48482850161198b565b91505092915050565b600082825260208201905092915050565b60006119e98261160c565b6119f381856119cd565b9350611a03818560208601611628565b611a0c81611652565b840191505092915050565b60006040820190508181036000830152611a3181856119de565b90508181036020830152611a4581846119de565b90509392505050565b611a5781611831565b82525050565b6000602082019050611a726000830184611a4e565b92915050565b600080fd5b600080fd5b7f4e487b7100000000000000000000000000000000000000000000000000000000600052604160045260246000fd5b611aba82611652565b810181811067ffffffffffffffff82111715611ad957611ad8611a82565b5b80604052505050565b6000611aec61155a565b9050611af88282611ab1565b919050565b600067ffffffffffffffff821115611b1857611b17611a82565b5b611b2182611652565b9050602081019050919050565b82818337600083830152505050565b6000611b50611b4b84611afd565b611ae2565b905082815260208101848484011115611b6c57611b6b611a7d565b5b611b77848285611b2e565b509392505050565b600082601f830112611b9457611b93611a78565b5b8135611ba4848260208601611b3d565b91505092915050565b600080600060608486031215611bc657611bc5611564565b5b600084013567ffffffffffffffff811115611be457611be3611569565b5b611bf086828701611b7f565b9350506020611c018682870161158f565b9250506040611c128682870161158f565b9150509250925092565b60008060408385031215611c3357611c32611564565b5b6000611c418582860161158f565b925050602083013567ffffffffffffffff811115611c6257611c61611569565b5b611c6e85828601611b7f565b9150509250929050565b600081519050919050565b600082825260208201905092915050565b6000819050602082019050919050565b6000606083016000830151611cbc60008601826115fd565b5060208301518482036020860152611cd48282611663565b9150506040830151611ce960408601826115fd565b508091505092915050565b6000611d008383611ca4565b905092915050565b6000602082019050919050565b6000611d2082611c78565b611d2a8185611c83565b935083602082028501611d3c85611c94565b8060005b85811015611d785784840389528151611d598582611cf4565b9450611d6483611d08565b925060208a01995050600181019050611d40565b50829750879550505050505092915050565b60006020820190508181036000830152611da48184611d15565b905092915050565b611db58161169c565b82525050565b6000602082019050611dd06000830184611dac565b92915050565b60008060408385031215611ded57611dec611564565b5b600083013567ffffffffffffffff811115611e0b57611e0a611569565b5b611e1785828601611b7f565b9250506020611e288582860161158f565b9150509250929050565b60008060408385031215611e4957611e48611564565b5b600083013567ffffffffffffffff811115611e6757611e66611569565b5b611e7385828601611b7f565b925050602083013567ffffffffffffffff811115611e9457611e93611569565b5b611ea085828601611b7f565b9150509250929050565b611eb38161169c565b8114611ebe57600080fd5b50565b600081359050611ed081611eaa565b92915050565b60008060008060808587031215611ef057611eef611564565b5b6000611efe8782880161198b565b945050602085013567ffffffffffffffff811115611f1f57611f1e611569565b5b611f2b87828801611b7f565b9350506040611f3c87828801611ec1565b925050606085013567ffffffffffffffff811115611f5d57611f5c611569565b5b611f6987828801611b7f565b91505092959194509250565b600081519050919050565b600082825260208201905092915050565b6000819050602082019050919050565b600060c083016000830151611fb960008601826115fd565b5060208301518482036020860152611fd18282611663565b9150506040830151611fe660408601826115fd565b506060830151611ff960608601826115fd565b50608083015161200c60808601826115fd565b5060a083015161201f60a08601826116a8565b508091505092915050565b60006120368383611fa1565b905092915050565b6000602082019050919050565b600061205682611f75565b6120608185611f80565b93508360208202850161207285611f91565b8060005b858110156120ae578484038952815161208f858261202a565b945061209a8361203e565b925060208a01995050600181019050612076565b50829750879550505050505092915050565b600060208201905081810360008301526120da818461204b565b905092915050565b7f736f6c6f2061646d696e6973747261646f720000000000000000000000000000600082015250565b60006121186012836119cd565b9150612123826120e2565b602082019050919050565b600060208201905081810360008301526121478161210b565b9050919050565b7f4e487b7100000000000000000000000000000000000000000000000000000000600052603260045260246000fd5b7f6c6120616374697669646164206e6f206573746120636f6d706c657461646100600082015250565b60006121b3601f836119cd565b91506121be8261217d565b602082019050919050565b600060208201905081810360008301526121e2816121a6565b9050919050565b7f6c61206163746976696461642079612065737461207061676164610000000000600082015250565b600061221f601b836119cd565b915061222a826121e9565b602082019050919050565b6000602082019050818103600083015261224e81612212565b9050919050565b7f4e487b7100000000000000000000000000000000000000000000000000000000600052602260045260246000fd5b6000600282049050600182168061229c57607f821691505b6020821081036122af576122ae612255565b5b50919050565b7f4e487b7100000000000000000000000000000000000000000000000000000000600052601160045260246000fd5b60006122ef8261156e565b91506122fa8361156e565b92508282026123088161156e565b9150828204841483151761231f5761231e6122b5565b5b5092915050565b60006123318261156e565b915061233c8361156e565b9250828201905080821115612354576123536122b5565b5b92915050565b60008190508160005260206000209050919050565b60006020601f8301049050919050565b600082821b905092915050565b6000600883026123bc7fffffffffffffffffffffffffffffffffffffffffffffffffffffffffffffffff8261237f565b6123c6868361237f565b95508019841693508086168417925050509392505050565b6000819050919050565b60006124036123fe6123f98461156e565b6123de565b61156e565b9050919050565b6000819050919050565b61241d836123e8565b6124316124298261240a565b84845461238c565b825550505050565b600090565b612446612439565b612451818484612414565b505050565b5b818110156124755761246a60008261243e565b600181019050612457565b5050565b601f8211156124ba5761248b8161235a565b6124948461236f565b810160208510156124a3578190505b6124b76124af8561236f565b830182612456565b50505b505050565b600082821c905092915050565b60006124dd600019846008026124bf565b1980831691505092915050565b60006124f683836124cc565b9150826002028217905092915050565b61250f8261160c565b67ffffffffffffffff81111561252857612527611a82565b5b6125328254612284565b61253d828285612479565b600060209050601f831160018114612570576000841561255e578287015190505b61256885826124ea565b8655506125d0565b601f19841661257e8661235a565b60005b828110156125a657848901518255600182019150602085019450602081019050612581565b868310156125c357848901516125bf601f8916826124cc565b8355505b6001600288020188555050505b505050505050565b7f736f6c6f20656d706c6561646f73000000000000000000000000000000000000600082015250565b600061260e600e836119cd565b9150612619826125d8565b602082019050919050565b6000602082019050818103600083015261263d81612601565b9050919050565b7f736f6c6f20656d70706c6561646f730000000000000000000000000000000000600082015250565b600061267a600f836119cd565b915061268582612644565b602082019050919050565b600060208201905081810360008301526126a98161266d565b9050919050565b7f736f6c6f2073757065727669736f726573000000000000000000000000000000600082015250565b60006126e66011836119cd565b91506126f1826126b0565b602082019050919050565b60006020820190508181036000830152612715816126d9565b9050919050565b600081905092915050565b60006127328261160c565b61273c818561271c565b935061274c818560208601611628565b80840191505092915050565b60006127648284612727565b91508190509291505056fea2646970667358221220c0896bbdb7e9436b544d2792aee1e849ed60242c6513e1f4db86bd4d2b4ad6d564736f6c63430008110033",
  "immutableReferences": {},
  "source": "pragma solidity ^0.8.17; // SPDX-License-Identifier: MIT\r\n\r\ncontract workers {\r\n   \r\naddress public administrador;\r\nuint256 idTarea=0;\r\nuint256 idRecompensa=0;\r\nuint256 idTareaEmp=0;\r\n\r\nstruct Empleado {\r\n        string idemp;\r\n        address wallet;\r\n        bool activo;\r\n        string tipoemp;\r\n    }\r\n\r\n\r\nstruct WalletEmpleado {\r\n        string idemp;\r\n        bool activo;\r\n        string tipoemp;\r\n    }\r\n\r\nstruct _tareas {\r\n        uint idt;\r\n        string descripcion;\r\n        uint recompensa;\r\n        uint fechaini;\r\n        uint fechafin;\r\n        bool activo;\r\n    }\r\n\r\nstruct _tareasEmp {\r\n        uint id;\r\n        uint idt;\r\n        string idemp;\r\n        bool completado;\r\n        bool pagado;\r\n    }\r\n\r\nstruct _recompensas{\r\n    uint idr;\r\n    string descripcion;\r\n    uint importe;\r\n}\r\n\r\nstruct _solicitud\r\n{\r\n    uint ids;\r\n    uint idemp;\r\n    uint fecha;\r\n    string descripcion;\r\n    bool aprobada;\r\n}\r\n    \r\n\r\nEmpleado[] private listaEmpleados;\r\nmapping(address => WalletEmpleado) private empleado;\r\n_tareas[] private Tareas;\r\n_tareasEmp[] private TareasEmp;\r\n_recompensas[] private Recompensas;\r\n_solicitud[] private Solicitud;\r\n\r\n    //  return block.timestamp / 1 days;\r\n\r\n\r\nconstructor() {\r\nadministrador=msg.sender;\r\n}\r\n\r\n    function compareStrings(string memory a, string memory b) public pure returns (bool) {\r\n        return keccak256(abi.encodePacked(a)) == keccak256(abi.encodePacked(b));\r\n    }\r\n\r\n   modifier onlyAdmin() {\r\n        require(msg.sender == administrador, \"solo administrador\");\r\n        _;\r\n    }\r\n\r\n    modifier onlyEmp() {\r\n        require(empleado[msg.sender].activo==true, \"solo empleados\");\r\n        _;\r\n    }\r\n\r\n    modifier onlySup() {\r\n        require(empleado[msg.sender].activo==true, \"solo emppleados\");\r\n        require(compareStrings(empleado[msg.sender].tipoemp,\"supervisor\"), \"solo supervisores\");\r\n        _;\r\n    }\r\n\r\n    function logging(address _wallet) public view returns (string memory,string memory) {\r\n\r\n        string memory tipoemp=empleado[_wallet].tipoemp;\r\n        string memory id=empleado[_wallet].idemp;\r\n        return (id,tipoemp);\r\n    } \r\n\r\n    function loggingAdmin(address _wallet) public view returns (bool) {\r\n\r\n    bool check=false;\r\n    if (_wallet == administrador)\r\n     check=true;\r\n     return check;\r\n       \r\n    } \r\n\r\n    function addEmpleado(address _wallet,string memory _id, bool _activo,string memory _tipoemp) public onlyAdmin\r\n    {\r\n      listaEmpleados.push(Empleado({idemp:_id, wallet:_wallet,activo:_activo,tipoemp:_tipoemp }));\r\n      empleado[_wallet].idemp=_id;\r\n      empleado[_wallet].activo=_activo;\r\n      empleado[_wallet].tipoemp=_tipoemp;\r\n    }\r\n    \r\n    function addTarea(string memory _descripcion, uint _plazodias,uint _recompensa) public onlyAdmin\r\n    {\r\n      uint plazosegundos=_plazodias *24*60*60;\r\n\r\n      uint  _fechaini=block.timestamp;\r\n      uint  _fechafin=_fechaini + plazosegundos;\r\n      bool  _activo=true;\r\n\r\n      Tareas.push(_tareas({idt:idTarea,descripcion:_descripcion,recompensa:_recompensa,fechaini:_fechaini,fechafin:_fechafin,activo:_activo }));\r\n      idTarea=idTarea+1;\r\n    }\r\n\r\n    function addRecompensa(string memory _descripcion, uint _importe) public onlyAdmin\r\n    {\r\n      Recompensas.push(_recompensas({idr:idRecompensa,descripcion:_descripcion,importe:_importe}));\r\n      idRecompensa=idRecompensa+1;\r\n    }\r\n\r\n    function addTareaEmp(uint _idt, string memory _idemp) public onlyEmp\r\n    {\r\n    TareasEmp.push(_tareasEmp({id:idTareaEmp,idt:_idt,idemp:_idemp,completado:false,pagado:false}));\r\n    idTareaEmp=idTareaEmp+1;\r\n    }\r\n\r\n   function validarTarea(uint _id) public onlySup\r\n    {\r\n    TareasEmp[_id].completado=true;\r\n    }\r\n\r\n   function pagar(uint _id) public onlyAdmin\r\n    {\r\n     require(TareasEmp[_id].completado==true, \"la actividad no esta completada\");\r\n     require(TareasEmp[_id].pagado==false, \"la actividad ya esta pagada\");\r\n     TareasEmp[_id].pagado=true;\r\n    }\r\n\r\n    function GetListaEmpleados() public view returns (Empleado[] memory) {\r\n        return listaEmpleados;\r\n    } \r\n\r\n    function GetListaTareas() public view returns (_tareas[] memory) {\r\n        return Tareas;\r\n    } \r\n\r\n    function GetListaTareasEmp() public view returns (_tareasEmp[] memory) {\r\n        return TareasEmp;\r\n    } \r\n\r\n    function GetListaRecompensas() public view returns (_recompensas[] memory) {\r\n        return Recompensas;\r\n    } \r\n\r\n\r\n}\r\n\r\n",
  "sourcePath": "C:\\Users\\Administrathor\\Desktop\\WorkersDev\\workers_sc\\contracts\\workers.sol",
  "compiler": {
    "name": "solc",
    "version": "0.8.17+commit.8df45f5f.Emscripten.clang"
  },
  "schemaVersion": "3.4.10",
  "updatedAt": "2023-03-08T16:36:51.408Z",
  "networkType": "ethereum",
  "devdoc": {
    "kind": "dev",
    "methods": {},
    "version": 1
  },
  "userdoc": {
    "kind": "user",
    "methods": {},
    "version": 1
  }
}